:03000000020945AD
:0C094500787FE4F6D8FD758107020800F9
:100800007F381209217F0A7E001209017F0E12092A
:10081000217F0A7E001209017F011209217F0A7ED1
:10082000001209017F061209217F0A7E00120901C8
:100830007F801209217F0A7E001209017F4C120974
:10084000331208FD7F431209331208FD7F44120959
:10085000331208FD7F201209331208FD7F4412096C
:10086000331208FD7F491209331208FD7F53120924
:10087000331208FD7F501209331208FD7F4C120914
:10088000331208FD7F411209331208FD7F59120906
:10089000337F201209331208FD7F21120933120819
:1008A000FD7F401209331208FD7F2412093312081C
:1008B000FD7F2A1209331208FD7F201209337FC5FC
:1008C0001209217F5F1209337F2A1209337F2A120E
:1008D00009337F2A1209337F2A1209337F2A12092A
:1008E000337F2A1209337F2A1209337F2A120933F0
:0D08F0007F2A1209337F5F120933020800CE
:100921008FA0C2B0C2B1D2B27F017E00120901C252
:02093100B222F0
:100933008FA0D2B0C2B1D2B27F017E00120901C230
:02094300B222DE
:0408FD007F197E00E1
:10090100E4FDFCC3ED9FEC9E5015E4FBFA0BBB002C
:0F091100010ABA04F8BBFBF50DBD00010C80E430
:0109200022B4
:00000001FF
